:020000040000FA
:100000000C9456030C947E030C947E030C947E0394
:100010000C947E030C947E030C947E030C947E035C
:100020000C947E030C947E030C947E030C9442117A
:100030000C947E030C947E030C947E030C947E033C
:100040000C94F8100C947E030C947E030C947E03A5
:100050000C947E030C947E030C947E030C947E031C
:100060000C947E030C947E030101FF030101F7034E
:100070006C0068000500893008023802497868146D
:1000800000004D6F6C6520436F6E74726F6C0010D2
:100090000A0000000000000000000000003F00FF18
:1000A000C0FFC03F00100A3F004080FFC0FFC0F308
:1000B000C08040B3408C40C0C03F004D6F6C652095
:1000C000436F6E74726F6C0005077F4141417F3E44
:1000D0005B4F5B3E3E6B4F6B3E183C783C18183CC8
:1000E0007E3C181C577D571C1C5E7F5E1C007E43A7
:1000F000437E007E73737E007E7F7F7E7F41414121
:100100007F30483A060E06297929067F4141417F12
:1001100060703F02042A1C361C2A7F3E1C08000027
:10012000081C3E7F14227F22143C3C3C7EFF184278
:100130003C817E3E6375633E3E616B633E3E636B16
:100140006B3E04027F020410207F201008082A1C46
:1001500008081C2A0808143E554122637569756316
:1001600010181C1810040C1C0C04000000000000E7
:10017000005F00000007000700147F147F14042AAA
:100180007F2A10231308646236495620500008075E
:100190000300001C2241000041221C002A1C3E1CBE
:1001A0002A08083E080800E060000008080808085F
:1001B000006060000060100804033E5149453E00A5
:1001C000427F400062514949462141494D3318144C
:1001D000127F1027454545393C4A49493041211194
:1001E00009073649494936064949291E00002400B5
:1001F0000000806400000814224100141414141438
:10020000004122140802015909063E415D594E7C05
:100210001211127C7F494949363E414141227F41BA
:1002200041221C7F494949417F090909013E414159
:1002300051327F0808087F00417F41002041413F43
:10024000017F081422417F404040407F020C027F22
:100250007F0204087F3E4141413E7F090909063E75
:10026000416141BE7F0919294626494949320101A8
:100270007F01013F4040403F1F2040201F3F40384A
:10028000403F631408146303047804036151494533
:1002900043007F41410003040810600041417F009A
:1002A000040201020480808080800003070800208F
:1002B000545478407F2844443838444444283844CF
:1002C00044287F3854545418087E09090218A4A4FD
:1002D0009C787F0804047800447D4000006080849E
:1002E0007D7F1010284400417F40007C0478047812
:1002F0007C080404783844444438FC182424181832
:10030000242418FC7C080404080854545420043F96
:100310004444203C4040207C1C2040201C3C402089
:10032000403C44281028444C9090907C4464544CA9
:1003300044000836410000007F00000041360800FC
:10034000180408100C7F4141417F00000000240088
:1003500027002A0000000000250028002B000500CF
:1003600038016801000018140FFF000FFF00300073
:10037000C03000C0FFFFF0FFFFF0FFFFF0FFFFF015
:10038000FF0FF0FF0FF0C00030C00030CF0F30CFB4
:100390000F30C0F030C0F030F000F0F000F00FFF90
:1003A000000FFF00175344001613780016131400B3
:1003B0001510200015201000540A03E181867F3EAD
:1003C000186D830F0F0E0183866033186DC3198F6C
:1003D0001803C38E6033186DE330CF1803C39E60DB
:1003E0003630CDE360CF3006C79E7E3E30CDB36061
:1003F000CF300CC6F6603330D9B660CF33CFCCF6F1
:100400006061B0DB1E60CF30D86CE6C061B0DB1E2F
:10041000618F19986CC6C063B19B0E330F0FB07813
:10042000C6FF7E1F1B061E0F0A0A153A49676E6F2C
:100430007265006D560A0A504C454153452054558B
:10044000524E204F464620004C4F572042415454B4
:1004500045525921200003053F213F1208120A107E
:100460000A0E1C0E0C1E0C141A14161F161E131E38
:100470001E1B1E1E1F1E3F213F3A2F3A173D173FDE
:10048000213F181F02040A041F0E04040E1F0A1F36
:100490000A0E0E1F04110E2E252E2F2A2E26292974
:1004A000021F02081F08150E04040E150E15151B59
:1004B000151B040604040C040000000017000300D0
:1004C000031F0A1F16371A1904130A153A000300EE
:1004D000000E11110E000A040A040E04003000047C
:1004E00004040010001804031F111F121F101D1513
:1004F0001711151F07041F17151D1F151D01011FBB
:100500001F151F17151F000A00003200040A110AE8
:100510000A0A110A040115020E11171E051E1F15E5
:100520000A0E110A1F110E1F15111F05010E111DB4
:100530001F041F111F1108100F1F041B1F10101F75
:10054000061F1E040F0E110E1F09060E112E1F0589
:100550001A121509011F011F101F0F180F1F0C1F62
:100560001B041B031C03191513001F11030418118E
:100570001F000201022020200001020C121E1F1287
:100580000C0C12120C121F0C1A14041E05242A1E25
:100590001F021C141D1020201D1F0814111F101EE7
:1005A000041E1E021C0C120C3E0A040C123E1E04F9
:1005B0000214160A020F120E101E0E100E1E081E36
:1005C000120C1226281E322A26041E21001F00218A
:1005D0001E040102013F213FF6E8DBCFC3B8AEA401
:1005E0009B928A827B746E68625C57524E49454189
:1005F0003E3A3734312E2C29272523214500680126
:100600000000172B152010204C4F41444552001775
:100610002B16201314000A4E6F205344206361727E
:1006200064206F720A6E6F204C4F414445522E4831
:1006300045580A0A153A45786974001D20466C61D0
:100640007368696E670A20206C6F616465722E2E74
:100650002E0A0A444F4E2754205455524E204F46DE
:1006600046210000000000230026002900040404A5
:10067000040404040402020202020203030303034B
:100680000301020408102040800102040810200128
:10069000020408102000000008000201000003040A
:1006A00007000000000000000000AA1711241FBE70
:1006B000CFEFD8E0DEBFCDBF11E0A0E0B1E0E2E9CE
:1006C000F4E302C005900D92A634B107D9F724E0F7
:1006D000A6E4B1E001C01D92A331B207E1F713E037
:1006E000C6E5D3E004C02197FE010E94411AC5353A
:1006F000D107C9F70E9483110C94471A0C9400008B
:10070000ECE8F3E014AE12AE1092D5031092D403CD
:1007100015AE10928B0110928A01109289011092ED
:10072000B4000895CF93DF93E091BA038E2F90E049
:10073000880F991FE091B803F091B903E80FF91FF2
:10074000859194918F3F980729F41092B103DF911E
:10075000CF9108959093BD039927880F991FE09139
:10076000BB03F091BC03E80FF91FC591D4910E941F
:100770008003D093BF03C093BE031092C4031092B2
:10078000C30381E08093B20389E08093C703109292
:10079000CA031092CC031092CE038091BA038F5FEC
:1007A0008093BA03D4CF90E0880F991FE091C003E3
:1007B000F091C103E80FF91F259134913093D103D3
:1007C0002093D003F901859194919091B503989F5E
:1007D000802D11248093D203F90165917491472FE4
:1007E00050E08417150629F020F0F9012591349185
:1007F000832F989F802D11248093D30308958330F5
:1008000081F028F4813099F08230A9F00895873082
:10081000A9F08830C9F08430B1F4809180008F7DD8
:1008200003C0809180008F7780938000089584B505
:100830008F7784BD089584B58F7DFBCF8091B00004
:100840008F778093B00008958091B0008F7DF9CFAD
:100850001F93CF93DF93282F30E0F901EB56F94F28
:100860008491F901EF57F94FD491F901E359F94F08
:10087000C491CC23A9F0162F81110E94FF03EC2F05
:10088000F0E0EE0FFF1FEC5AFC4FA591B4918FB72B
:10089000F894EC91111108C0D095DE23DC938FBF42
:1008A000DF91CF911F910895DE2BF8CFCF93C82F02
:1008B000F89460E08091E9030E9428048091EA03A3
:1008C00018161CF460E00E942804CEBD00000DB490
:1008D00007FEFDCF8EB58091EA0318161CF461E087
:1008E0000E9428047894CF9108950F931F93CF937B
:1008F0008091E6038F5F8093E6030CE811E0C0E08F
:100900008C2F80640E94560480E80E94560461E0A7
:100910008091E9030E9428048091EA0318161CF4D0
:1009200060E00E942804F80184E591919EBD0000DA
:100930000DB407FEFDCF9EB58150B9F78091EA0353
:1009400018161CF461E00E942804CF5F0C5A1F4F58
:10095000C630B1F680E4CF911F910F910C945604EC
:10096000CF93DF9390E0FC01EF57F94F2491835927
:10097000994FFC0184918823C9F090E0880F991F5A
:10098000FC01E65BFC4FA591B491FC01EC5AFC4FD5
:10099000C591D49161110DC09FB7F8948C912095A9
:1009A00082238C938881282328839FBFDF91CF9156
:1009B0000895623051F49FB7F8943C91822F80954E
:1009C00083238C93E8812E2BEFCF8FB7F894EC9193
:1009D0002E2B2C938FBFEACFFF920F931F93CF93B1
:1009E000DF93CCE8D3E0FF24FA9462E08A850E948A
:1009F000B0042A8530E0F901EB56F94F8491F901F2
:100A0000EF57F94F0491F901E359F94F149111236C
:100A1000E1F081110E94FF03E12FF0E0EE0FFF1FD4
:100A2000ED59F94FA591B491EC9189890E2369F0A4
:100A3000811113C0219683E0C339D807B1F6DF9145
:100A4000CF911F910F91FF90089589898F5F898BB6
:100A500060E08A850E94B004EDCF8F3F11F4198ABF
:100A6000F7CFF98AF5CF1F93CF93DF93182FEB01C0
:100A700061E00E94B004209739F460E0812FDF919B
:100A8000CF911F910C942804CF3FD10511F461E060
:100A9000F5CFE12FF0E0EB56F94FE491E33031F17F
:100AA00040F4E130B1F0E230E1F0C038D1057CF73C
:100AB000E4CFE73029F1E83059F1E430B1F7809123
:100AC0008000806280938000D0938B00C0938A0066
:100AD00004C084B5806884BDC7BDDF91CF911F91EC
:100AE000089584B5806284BDC8BDF7CF8091800031
:100AF000806880938000D0938900C0938800EDCFF8
:100B00008091B00080688093B000C093B300E5CFBF
:100B10008091B00080628093B000C093B400DDCFBC
:100B20008E50806480937C0080917A0080648093F2
:100B30007A0080917A0086FDFCCF809178009091B8
:100B4000790008958091B0038F7149F584E10E9486
:100B50009005BC01990F880B990B0E94041926EE91
:100B60003FE34EEC50E40E9468190E94D3189B01A9
:100B70007093A7036093A603672BB9F084E080937A
:100B8000A503E8EAF3E080E041915191241735078D
:100B900018F48093A50308958F5F8430A9F780919E
:100BA000B0038F5F8093B00308958FEF8093A50308
:100BB000F6CF3FB7F8948091830190918401A09182
:100BC0008501B091860126B5A89B05C02F3F19F07D
:100BD0000196A11DB11D3FBFBA2FA92F982F8827BD
:100BE000BC01CD01620F711D811D911D42E0660F98
:100BF000771F881F991F4A95D1F708958F929F926A
:100C0000AF92BF92CF92DF92EF92FF924B015C01C5
:100C10000E94D9056B017C010E94D9056C197D09E0
:100C20008E099F09683E734081059105A8F321E074
:100C3000821A9108A108B10888EEC80E83E0D81E78
:100C4000E11CF11C81149104A104B10429F7FF9067
:100C5000EF90DF90CF90BF90AF909F908F900895CE
:100C60002FB7F89460917F0170918001809181018C
:100C7000909182012FBF0895DC01ED91FC910190CC
:100C8000F081E02D0994AF92BF92CF92DF92EF9264
:100C9000FF920F931F93CF93DF936C017B018B0126
:100CA000040F151FEB015E01AE18BF08C017D10776
:100CB00059F06991D601ED91FC910190F081E02D00
:100CC000C6010995892B79F7C501DF91CF911F9155
:100CD0000F91FF90EF90DF90CF90BF90AF9008956D
:100CE000DC01FB0184918F5F14968C9314973196ED
:100CF000E491EF5F1596EC9315976E5F7F4F5F96CB
:100D00007C936E935E9708954F925F927F928F923D
:100D10009F92AF92BF92CF92DF92EF92FF920F938A
:100D20001F93CF93DF93EC01F901E4903196849106
:100D30000E2C000CFF08062F062E000C110BF801DC
:100D4000EE0DFF1D1E161F060CF0E1C040330CF027
:100D5000DEC0A82FA42E042E000CBB086501C80E0F
:100D6000D11C87FDDA941C141D040CF0D0C02E5F3A
:100D70003F4F670177E0C70ED11CD7FE04C0670163
:100D80009EE0C90ED11C93E0D594C7949A95E1F7E3
:100D900047FF0AC0A42FA80FCA9CC001CB9C900D8E
:100DA0001124281B390B40E08A2F0A2E000C990BC6
:100DB000840F911D47FD9A95C19714F0A0E3A41BE1
:100DC000F8A0E535F10514F0E4E5F0E09E2FCC85C0
:100DD000C427542F577081E001C0880F5A95EAF755
:100DE000459545954595F80174E54702E00DF11DDF
:100DF0001124AF0144575E4FD0E04A2EAA0F550888
:100E0000EE24E394DD24D41515040CF080C0F90120
:100E10007491F1E0FF1219C0A62E8A01F901B0E821
:100E2000BB2EA91608F052C09B2C972221F0D801A6
:100E30009C90982A9C92B69421F431967491A0E8E3
:100E4000BA2EA3940F5F1F4FECCFF1101BC0882E5A
:100E50008094A62E8A01F901B0E8BB2EA91608F0ED
:100E600035C09B2C972221F0D8019C9098209C9211
:100E7000B69421F431967491A0E8BA2EA3940F5F32
:100E80001F4FECCFB3E0FB122AC0882E8094962E21
:100E90008A01F901B0E8AB2E9916B8F4BA2CB72242
:100EA00041F0D801BC907C2E792470FE0CC0B82A89
:100EB000BC92A69421F431967491A0E8AA2E939442
:100EC0000F5F1F4FE9CFB820F3CFCE25880F19F45D
:100ED0004C5A5F4F81E0DF5F2C0D3D1D94CFA62E55
:100EE0008A01F901B0E8BB2EA91680F79B2C972246
:100EF00021F0D8019C9098269C92B69421F43196CA
:100F00007491A0E8BA2EA3940F5F1F4FEDCFDF912D
:100F1000CF911F910F91FF90EF90DF90CF90BF90F6
:100F2000AF909F908F907F905F904F900895DC01DD
:100F3000643570F5403360F590968C919097E62F6C
:100F4000062E000CFF0B242F25952595259594E55D
:100F50002902E00DF11D1124E457FE4F2081342FAA
:100F600037708230B1F4822F90E0032E02C0959545
:100F700087950A94E2F780958170811114C081E011
:100F800090E001C0880F3A95EAF78095822380832C
:100F90000895833091F71C968C9181706427609539
:100FA00061708613ECCF81E090E001C0880F3A9524
:100FB000EAF7822BECCFAF92BF92CF92DF92EF9203
:100FC000FF920F931F93CF93DF93182F062FC0E04C
:100FD000D3E08AEFD82E9EEFE92E842F8470C82E9E
:100FE000842F8270B82E842F8870A82E4170F42E22
:100FF000CF5F8C2F880F8F5FE80ECC2081F0402FC1
:101000004D0F612F6C0F8AED93E00E949707402FE0
:101010004C0F6D2F610F8AED93E00E949707BB2064
:1010200081F0402F4D1B612F6C0F8AED93E00E94E1
:101030009707402F4C1B6D2F610F8AED93E00E94A4
:101040009707AA2081F0402F4C0F612F6D1B8AED6E
:1010500093E00E949707402F4D0F612F6C1B8AED84
:1010600093E00E949707FF2081F0402F4C1B612FD7
:101070006D1B8AED93E00E949707402F4D1B612F57
:101080006C1B8AED93E00E949707CD173CF4E7FCB8
:10109000AFCFD150D394D394ED0CAACFDF91CF91A1
:1010A0001F910F91FF90EF90DF90CF90BF90AF9086
:1010B0000895EF92FF920F931F93CF93DF938C01CC
:1010C000F62ED42FE22EC0E0CE1544F46F2D6C0F17
:1010D0004D2FC8010E949707CF5FF6CFDF91CF91C8
:1010E0001F910F91FF90EF9008952F923F924F9292
:1010F0005F926F927F928F929F92AF92BF92CF92A8
:10110000DF92EF92FF920F931F93CF93DF9300D064
:1011100000D0CDB7DEB79C838B836A3099F4DC01B5
:1011200018962C91189715969C9115971A968C9154
:101130001A97299F800D11241A968C931A97199645
:101140001C92F0C06D3009F4EDC0EB81FC8151843C
:10115000F3E5F5150CF4C3C0AB81BC811A96FC9085
:10116000BFE2BF150CF4BBC0EB81FC81108524816C
:101170002150330B129FC001139F900D1124850D38
:10118000911D57FC9A95181619060CF0A8C02581D8
:101190008F2D0F2C000C990B129F800D911D112487
:1011A000181619060CF09BC0F0A1F983752C612C60
:1011B000262E312CA12E012E000CBB08E62D062C6C
:1011C000000CFF0BAB81BC8114968C91149790E0BE
:1011D000E817F9070CF07EC00197E817F907A1F1AD
:1011E000289E6001299ED00C389ED00C1124CE0E72
:1011F000DF1E5E96ED91FC91EC0DFD1DE4910F2D2F
:10120000E12CB62DB50DBA83AB81BC8115962C911E
:1012100015978E2D0E2C000C990B2817190609F026
:101220000CF455C0CE2ED12CE0FF26C0113071F445
:101230004E2D4F0D6A81CD010E949707F601F5955D
:10124000E795E394010FE0CFE0E0D9CF402E4501D0
:10125000800E911C07FD9A94842D042C000C990B90
:10126000881599055CF7212F442D672D8B819C8172
:101270000E9459084394F0CFEB81FC8181A190A199
:101280008917E1F280A3113061F44E2D4F0D6A8170
:10129000CF010E949707E981AB81BC819096EC93C6
:1012A000CDCF402E4501800E911C07FD9A94842DD0
:1012B000042C000C990B881599056CF7212F442DEF
:1012C000672D8B819C810E9459084394F0CF6394D1
:1012D000710E74CFE981AB81BC819096EC93AB81A8
:1012E000BC8118962C91189714963C9114971996D6
:1012F0008C911997239F800D112419968C9319971F
:1013000017969C911797992369F0082E000C990B5A
:1013100044E550E0239F401951091124481759070B
:101320000CF401CF81E090E00F900F900F900F90A0
:10133000DF91CF911F910F91FF90EF90DF90CF90B1
:10134000BF90AF909F908F907F906F905F904F90E5
:101350003F902F9008950F931F93CF93DF938C01AD
:10136000D0E0C0E0F801EC0FFD1F6491662341F06E
:101370008AED93E00E947508892B11F02196F2CF37
:10138000CE01DF91CF911F910F910895EF92FF92BF
:101390000F931F93CF93DF938C01D62FF42EE22E61
:1013A000C0E0CE1544F44F2D4C0F6D2FC8010E94A4
:1013B0009707CF5FF6CFDF91CF911F910F91FF90ED
:1013C000EF9008958F929F92AF92BF92CF92DF924B
:1013D000EF92FF920F931F93CF93DF93082FB62EB8
:1013E000942EA22E83E0F82ED0E0C3E09AEFE92EEF
:1013F0001EEFCC24C394C20EDF5F1F0D2C2F220FD3
:101400004B2D4C1B8A2C8F0CDB2CDD1A81E02C0D14
:10141000602F981218C06D0F8AED93E00E94C609E4
:10142000282D4D2D6C2F600F8AED93E00E94C60988
:10143000DC179CF417FD04C0C150E394E3941E0D27
:10144000F394F394D9CF6D1B8AED93E00E94C60903
:10145000282D4D2D602F6C1BE7CFDF91CF911F9171
:101460000F91FF90EF90DF90CF90BF90AF909F9043
:101470008F9008950F931F93CF93DF93182FD62F3C
:10148000C42F022F242F462F682F8AED93E00E944D
:1014900059084FEF400F4D0F2C2F612F8AED93E02D
:1014A0000E945908202F4D2F612F8AED93E00E9452
:1014B000C6096FEF6C0F610F202F4D2F8AED93E05F
:1014C000DF91CF911F910F910C94C609089590E080
:1014D00080E008958F929F92AF92BF92CF92DF9259
:1014E000EF92FF92C090A603D090A703C094D0942F
:1014F000F12CE12C0E94D9054B015C010E94D90519
:10150000A501940120953095409550956095709572
:10151000809590950E94FD199B01AC01C701B60111
:101520000E94FD194B015C01C0908D03D0908E0389
:10153000F12CE12C0E94D9056C0D7D1D8E1D9F1D87
:10154000680D791D8A1D9B1D611571058105910529
:1015500051F0FF90EF90DF90CF90BF90AF909F90B1
:101560008F900C946018FF90EF90DF90CF90BF9019
:10157000AF909F908F900895FB0101900020E9F7B4
:101580003197AF01461B570BDC01ED91FC910280B6
:10159000F381E02D0994CF93DF930E94AB09EC0116
:1015A0006CE171E08AED93E00E94BC0A8C0F9D1FF4
:1015B000DF91CF910895ECE8F1E088EF91E0DF0151
:1015C0009C011D9221503040E1F71092E3031092EC
:1015D000E4038BE396E00E94AB090E9475048CB58E
:1015E00083608CBD8DB58E7F8DBD8FE191E0EEEF78
:1015F000FFE309951092E00386E196E00E94CB0A92
:101600000E9475040E94EC048091A103813039F09E
:1016100062E370E080E090E00E94FE05F3CF089561
:101620008F929F92AF92BF92EF92FF920F931F9370
:10163000CF93DF93CDB7DEB7A1970FB6F894DEBF97
:101640000FBECDBF7C01FA01CB0119A2223008F4F4
:101650002AE08E010F5D1F4F822E912CB12CA12C00
:10166000BF01A50194010E949B18F901CA016A30CB
:101670000CF5605DD8016E938D01232B242B252B57
:1016800079F790E080E0109721F0BD01C7010E943A
:10169000BC0AA1960FB6F894DEBF0FBECDBFDF9196
:1016A000CF911F910F91FF90EF90BF90AF909F90BF
:1016B0008F900895695CDECFCF92DF92EF92FF9218
:1016C0000F931F93CF93DF9377FF1DC06A017B01B8
:1016D000EC016DE20E943C068C0144275527BA01BB
:1016E0004C195D096E097F092AE0CE010E94100B9A
:1016F000800F911FDF91CF911F910F91FF90EF907D
:10170000DF90CF9008952AE0DF91CF911F910F9144
:10171000FF90EF90DF90CF900C94100B4F925F9260
:101720006F927F928F929F92AF92BF92CF92DF92F1
:10173000EF92FF920F931F93CF93DF9300D000D0CF
:101740001F92CDB7DEB7C0900C04D0900D04E0908E
:101750000E04F0900F040E943006C61AD70AE80A59
:10176000F90A80910B0490E0B0E0A0E040910704FA
:10177000509108046091090470910A048C159D052C
:10178000AE05BF0508F0C5C04115510561057105DD
:1017900009F4BFC00E94300620910B04620F711D36
:1017A000811D911D60930C0470930D0480930E04B1
:1017B00090930F048091FD039091FE03A091FF038D
:1017C000B09100040196A11DB11D8093FD0390937B
:1017D000FE03A093FF03B09300041092070410923D
:1017E00008041092090410920A040E94D90560931B
:1017F000030470930404809305049093060480917D
:101800008D0390918E032FE0289FA001299F500DFA
:1018100011245A83498385E10E949005A981BA81E8
:101820008A0F9B1FB4E096958795BA95E1F7909340
:101830008E0380938D0320918C03222309F448C0EA
:1018400060919003262F30E050E040E029833A83F6
:101850004B835C83C0909103D12CF12CE12C4091FF
:101860009403509195034A01B12CA12C209192032D
:10187000309193032901712C612C8217930728F072
:101880009C014817590708F49A0150E040E02419D8
:1018900035094609570969817A818B819C816C19C8
:1018A0007D098E099F090E94FD19A5019401241943
:1018B0003509460957090E946918C20ED31EE41E55
:1018C000F51EC0928F036C2D70E085E00E943305F9
:1018D0000E94EC048091A8039091A903892B11F038
:1018E0000E94A20581E00F900F900F900F900F9033
:1018F000DF91CF911F910F91FF90EF90DF90CF90EC
:10190000BF90AF909F908F907F906F905F904F901F
:101910000895452B462B472B09F0E6C28091A3037F
:1019200081508E3FB8F58091A203813099F5809166
:10193000B6038F5F6091B70387FD09C0082E000CC6
:10194000990B70E06F5F7F4F0E94191A682F6093A8
:10195000B6038FE096E0909311048093100488E41E
:10196000809312040E9480038CEF95E09093BF0354
:101970008093BE031092C4031092C30381E080934E
:10198000B20389E08093C7031092CA031092CC037C
:101990001092CE038091A30381508E3F70F480910A
:1019A000A103813009F019C382E096E090931104FD
:1019B0008093100488E4809312048091B1038823FB
:1019C00031F08091B203811102C00E949203809194
:1019D000B203882309F43EC08091C60381113AC046
:1019E0008091BE039091BF03E091C303F091C403C3
:1019F000EE0FFF1FE80FF91F2591349121153105D6
:101A000009F4BBC0A9015695479556954795842F73
:101A100020FD5EC08F738093C5038091B503839FC3
:101A2000802D11248093C6031092D6031092D50303
:101A30001092D40381E08093C803809389011092AF
:101A4000C9038091C3039091C40301969093C4038A
:101A50008093C3038091C803882331F08091C6032B
:101A60008111A5C00E94800380911204882309F48B
:101A7000F2C18C3008F082C13CE0381B398381E030
:101A80008093E2031092FA031092FB034091DF036C
:101A90004D8393E0E92EE40E1981141B0DE2010F32
:101AA0000E2C000CFF08E00EF11C07FDFA94802FAD
:101AB000002E000C990B8E159F050CF061C12EE4D1
:101AC000402F63E08AED93E00E9459080F5FEFCF4B
:101AD000C901E6E096958795EA95E1F78F71932F16
:101AE00096959695969590514F70423099F1D0F415
:101AF000442309F43CC04130B9F1E091C303F091B3
:101B0000C4033196F093C403E093C303CF01880F5D
:101B1000991FE091BE03F091BF03E80FF91F2591D3
:101B2000349170CF433061F0443039F72091B503E0
:101B3000289F802D11248093CE039093CF03DDCF77
:101B40002091B503289F802D11248093CC0390937E
:101B5000CD03D3CF2091B503289F802D11248093EE
:101B6000CA039093CB03C9CF0E94D303C6CF8B3057
:101B700008F08AE08093C703C0CF2091C2032111EF
:101B800010C01092B2038091B103811103C00E9472
:101B9000800360CF0E9492038091C3039091C4039D
:101BA000B6CF1092C4031092C303FC01B8CF81508A
:101BB0008093C6038091D603811142C02091D40343
:101BC0003091D5032F5F3F4FC901880F991FE091D6
:101BD000D003F091D103E80FF91F85919491482F1C
:101BE00047704093D703492F469546954093D803B5
:101BF000AC0164E0569547956A95E1F74F73909173
:101C0000B503499F402D11244093D60383FB8827B9
:101C100080F9809388013093D5032093D403809179
:101C2000D20390E02817390758F02091D3032223DC
:101C300009F49EC0821B91099093D5038093D4032D
:101C40008091D60381508093D6038091C90331E0FF
:101C5000380F3093C9034091C5032091D803240F56
:101C60008091BD03280F2093B3036091CC036623BA
:101C700071F070E0832F032E000C990B0E94191A4B
:101C80008091CD03869F200D11242093B303809172
:101C9000B30390E0849664E270E00E94191A809386
:101CA000B3032091C7032093B4036091CA03662352
:101CB00081F0062E000C770B832F032E000C990B5E
:101CC0000E94191A8091CB03869F200D1124209326
:101CD000B4036091CE036623A1F0832F330F990BD9
:101CE00070E00E94191ACB0162E070E00E94191A9C
:101CF0002091CF039091B403289F900D11249093CD
:101D0000B4034F33C1F18091B4038A300CF089E001
:101D100087FD80E08093B403F894E091B303F0E092
:101D2000E852FA4FE491E09387012091D903309172
:101D3000B4033203900111244091D7034203C00140
:101D4000439F900D11242091B60302C0880F991F64
:101D50002A95E2F797FF02C081589F4F880F892F7D
:101D6000881F990B80938A0180938B0178947CCE95
:101D70000E94800365CF1092B403CECF19827FCE2C
:101D80005D8154505D83105D252F41E0612F80E51A
:101D90000E94E2092D8142E0612F83E00E94E20966
:101DA00081E08093FA038093FB030091DF031981A4
:101DB000101B8DE2F82EF10E2EE44F2D63E08AED1C
:101DC00093E00E94590883E0800F8F0D8D83482F88
:101DD00041502EE463E08AED93E00E9459080350DD
:101DE000105D202F412F60E08AED93E00E94C6092C
:101DF000202F412F63E58AED93E00E94C60941E060
:101E0000612F83E00E94DB0742E0612F80E50E94A2
:101E1000DB079D8194509D8344E0692F80E50E94FB
:101E2000DB0748E06D8183E00E94DB0784E080935C
:101E3000E3038091DF03A981A81BA15DA093E403C4
:101E400080911004909111040E94AB0980911204BA
:101E50008150809312048091A8039091A903892B4B
:101E6000D9F0B1E0B093FA031092FB039091DE0336
:101E700085E5891B8093E3031092E4036091A50339
:101E8000613009F48EC090F18091A403653008F0B0
:101E90009FC06B5F811197C00E9475048091E00321
:101EA00081110EC0ECE8F1E088EF91E0DF019C01C8
:101EB0001D9221503040E1F71092E3031092E403A9
:101EC0000E94D90560930704709308048093090465
:101ED00090930A042091030430910404621B730B55
:101EE000709302046093010480E0FDCC0E948003A3
:101EF0001092B20321E02093E20366E574E08AEDDC
:101F000093E00E9470061092A9031092A803109209
:101F1000E00338EA39830E948E0B8823E1F388E4DA
:101F200094E00E94AB094091A6035091A70370E092
:101F300060E02AE08AED93E00E94100B83E394E0D6
:101F40000E94AB09498142954F7050E070E060E01B
:101F50008AED93E00E945C0B88E294E00E94AB095A
:101F60008091A103813009F497CF49814150498381
:101F70004111D1CF70E060E085E00E94330583B766
:101F8000817F846083BF83B7816083BF83B78160B3
:101F900083BF889583B78E7F83BF83B78E7F83BFD0
:101FA000BACF8091FD039091FE03A091FF03B09101
:101FB00000048F709927AA27BB2767E00897A1051F
:101FC000B10508F068E78AED93E00E943C0664CF13
:101FD000882309F461CF6FE2F6CF893209F0EDCCA6
:101FE0000E94DB0AEACC8F929F92AF92BF92CF926F
:101FF000DF92EF92FF920F931F93CF93DF93EC0149
:1020000081E08093E2031092E1031092E0031092CA
:10201000A4038093FA038093FB038CE0F82E0CEF6B
:1020200015E0EE24E39499E0D92E0E948E0B8823CC
:10203000E1F3FE01C490C110C090DF0328EB33E050
:1020400040E060E08AED93E00E9484064CE04C0D95
:1020500026E633E060E08AED93E00E948406109269
:10206000E303F092E403CE010E94AB098091DE030A
:10207000982F990F990F891B8D5A8093E3038091B4
:10208000DF03982F990F990F891B835D8093E403D9
:102090008091FD0384FF78C084EB93E00E94CB0A1B
:1020A0008091DE03982F990F990F891B8D5A809389
:1020B000E3038091E4038F5F8093E4038091B60390
:1020C000882309F464C08CEA93E00E94CB0A8091D3
:1020D000DE03982F990F990F891B8D5A8093E30384
:1020E0008091E4038F5F8093E40384EA93E00E948D
:1020F000CB0A8091A203813031F58091B6038F5FC6
:102100006091B70387FD09C0082E000C990B70E0A1
:102110006F5F7F4F0E94191A682F6093B6030E9469
:1021200080031093BF030093BE031092C403109268
:10213000C303E092B203D092C7031092CA03109275
:10214000CC031092CE038091A103813019F18091CC
:10215000FC03482F50E070E060E08090FD03909019
:10216000FE03A090FF03B090000484169506A60617
:10217000B70610F08F3F71F48091A303813009F00E
:1021800054CF0E94DB0A51CF80EB93E087CF88EADF
:1021900093E09BCF8FEF8093FC030E94800310920B
:1021A000B2030E9480038EE593E09093BF03809377
:1021B000BE031092C4031092C30381E08093B20364
:1021C00099E09093C7031092CA031092CC03109227
:1021D000CE038093A403DF91CF911F910F91FF90C5
:1021E000EF90DF90CF90BF90AF909F908F90089529
:1021F0001F920F920FB60F9211242F933F938F933C
:102200009F93AF93BF9380917F0190918001A091A4
:102210008101B091820130917E0123E0230F2D379F
:1022200058F50196A11DB11D20937E0180937F0179
:1022300090938001A0938101B093820180918301EA
:1022400090918401A0918501B09186010196A11D14
:10225000B11D8093830190938401A0938501B09375
:102260008601BF91AF919F918F913F912F910F90D8
:102270000FBE0F901F90189526E8230F0296A11D00
:10228000B11DD2CF1F920F920FB60F9211242F9330
:102290006F937F938F939F9360918A01662349F197
:1022A000809146018F5F8093460190918701891745
:1022B00000F12091890181E0282720938901109263
:1022C000460180918801882369F08091000193E4A0
:1022D000899F802D1124895B809300010E940D1A33
:1022E00090938B0180918B01211101C080E080933C
:1022F000B4009F918F917F916F912F910F900FBE9E
:102300000F901F901895CF93DF9300D0CDB7DEB715
:10231000789484B5826084BD84B5816084BD85B5C0
:10232000826085BD85B5816085BD80916E008160CC
:1023300080936E0010928100809181008260809372
:102340008100809181008160809381008091800074
:102350008160809380008091B10084608093B1009F
:102360008091B00081608093B00080917A00846099
:1023700080937A0080917A00826080937A008091C5
:102380007A00816080937A0080917A0080688093DF
:102390007A001092C10082E380930B0481E090E008
:1023A000A0E0B0E08093070490930804A093090490
:1023B000B0930A048FEF8093FC03E0E8F7E72591E0
:1023C00034912130304C09F02CC5E6E9F7E7E4916F
:1023D000E093E503E7E9F7E7E491E0939003E8E9A8
:1023E000F7E7E491E0939103E9E9F7E785919491A8
:1023F0009093930380939203EBE9F7E7859194918F
:10240000909395038093940387E08093B703EEE95C
:10241000F7E7E491E093B603EFE9F7E7E491E0939F
:10242000FC03E0EAF7E7859194919093A9038093E8
:10243000A803E2EAF7E7859194919093AB03809328
:10244000AA03E4EAF7E7859194919093AD03809312
:10245000AC03E6EAF7E7859194919093AF038093FC
:10246000AE03A1E0A0938C036FEF70E085E00E94C3
:10247000330588E08093960389E08093970387E093
:102480008093980386E080939903B4E0B0939A0315
:1024900082E080939B0381E180939C030E94EC0483
:1024A0008CE39FE09093A7038093A603E4E0E0937E
:1024B000A503F1E0F093B0038BE08093E8038DE097
:1024C0008093E70380E18093E9038EE08093EB0340
:1024D0008FE08093EA03F093E203F093FA03109203
:1024E000FB03F093E10366E574E08AED93E00E945C
:1024F00070062FB72983F89480914701811127C076
:10250000E7E7F6E08491EBE8F6E09491E82FF0E05D
:10251000EE0FFF1FE65BFC4FA591B491EC91E92310
:1025200021F461E08AE00E94280461E08AE00E94D0
:10253000B0048CB580618CBD8CB580648CBD61E0CD
:102540008DE00E94B00461E08BE00E94B0048091B5
:1025500047018F5F8093470139813FBF8CB58F7DE5
:102560008CBD8CB58C7F81608CBD8DB581608DBD3F
:102570008CB58C608CBD61E08091E8030E94B00452
:1025800061E08091E7030E94B00461E08091E9037B
:102590000E94B0048091EB0318161CF461E00E94C5
:1025A000B0048091EA0318161CF461E00E94B004A4
:1025B0008091EB03181674F460E00E9428046AE02E
:1025C00070E080E090E00E94FE0561E08091EB0306
:1025D0000E9428048091E703082E000C990BFC014F
:1025E000E359F94FE491F0E0EE0FFF1FEC5AFC4F76
:1025F000259134913093EF032093EE03FC01EF57C4
:10260000F94FE491E093F5038091E803082E000C64
:10261000990BFC01E359F94FE491F0E0EE0FFF1F35
:10262000EC5AFC4F259134913093ED032093EC0349
:10263000FC01EF57F94FE491E093F4038091EA0332
:10264000082E000C990BFC01E359F94FE491F0E0DE
:10265000EE0FFF1FEC5AFC4F259134913093F1039C
:102660002093F003FC01EF57F94FE491E093F60358
:102670008091E903082E000C990BFC01E359F94FF6
:10268000E491F0E0EE0FFF1FEC5AFC4F25913491DE
:102690003093F3032093F203FC01EF57F94FE491D9
:1026A000E093F70381E20E94560484E10E945604FD
:1026B0008091E50387FF03C08FE78093E503809156
:1026C000E50380680E94560480E20E9456048CE074
:1026D0000E9456040E94750481E08093B50384E053
:1026E0008093D90380E790E09093C1038093C00367
:1026F00080E00E94D30361E070E083E00E94330534
:102700008091B100887F81608093B100F89410922D
:10271000800010928100109285001092840088E160
:1027200091E0909389008093880080918100886077
:1027300080938100809181008160809381008091ED
:102740006F00826080936F0078948091A8039091CD
:10275000A903892B11F00E94A2058091A203813068
:1027600009F48CC38091A503882309F487C30E94D0
:10277000800384E790E09093BF038093BE031092A0
:10278000C4031092C30381E08093B20389E0809375
:10279000C7031092CA031092CC031092CE0368ECC8
:1027A00070E08AED93E00E9470068091FC0388231C
:1027B00021F082E890E00E94F30F0E946A0A1092D2
:1027C000A40368EC70E080E090E00E94FE0560E702
:1027D000262E61E0362E74EFE72EFF24F39443E0BB
:1027E000442E7724739452E0652E0E9430060091A7
:1027F0007A0110917B0120917C0130917D010617B7
:1028000017072807390708F0ACC18091A003813071
:1028100009F03AC3809179018F5F83300CF031C3A6
:10282000809379018091750190917601A091770153
:10283000B09178018E529641A109B109809375013A
:1028400090937601A0937701B093780181E089831A
:1028500080919E038130D9F480917901815087FD68
:1028600015C3809379018091750190917601A091B3
:102870007701B0917801807F907F8093750190936C
:102880007601A0937701B093780191E099838091CC
:102890009D038130A1F480917401815087FDF9C2BC
:1028A000809374018FEF9FEFDC018093750190930B
:1028B0007601A0937701B093780191E0998380919C
:1028C0009F038130D9F4809174018F5F83300CF0C5
:1028D000E3C2809374018091750190917601A0917B
:1028E0007701B09178018F6F809375019093760195
:1028F000A0937701B0937801A1E0A9838091A1030F
:10290000813009F0B1C02091790180917401082EC5
:10291000000C990BB42D2B02800D911D1124880FF2
:10292000991F880F991FFC01E45BFE4F4081518184
:102930006281738114161506160617060CF0C0C2C4
:102940001082118212821382809172019091730120
:102950000196909373018093720180917001909120
:10296000710101969093710180937001209107018C
:1029700030910801821793070CF45CC060910A0142
:1029800070910B016F5F7F4F70930B0160930A0191
:10299000109271011092700190E080E00E94021983
:1029A00020E030E040E05FE30E9468190E94CC180C
:1029B0006B5F7F4F70930801609307018091050161
:1029C000909106018C5291408C32E1E09E070CF40C
:1029D00066C2909306018093050180910301909156
:1029E000040184569109843F31E093070CF45EC2E0
:1029F0009093040180930301809105019091060159
:102A000020910301309104012817390724F4909391
:102A10000401809303018091010190910201885C7F
:102A20009109843FA1E09A070CF445C290930201FA
:102A3000809301018091750190917601A0917701B9
:102A4000B09178018E529B4FAF4FBF4F80959095BC
:102A5000A095B0958093750190937601A09377012E
:102A6000B0937801F1E0F9838091A303813009F0FC
:102A700067C068EC70E08AED93E00E947006809178
:102A8000FC03882321F08BEB90E00E94F30F0E945F
:102A90006A0A1092A40368EC70E080E090E00E9463
:102AA000FE05109273011092720121E030E0309324
:102AB0000B0120930A013AE03093090185E090E090
:102AC00090930801809307010E9430066C53764F63
:102AD00070930601609305010E94300668577C4E92
:102AE00070930401609303010E94300668577C4E86
:102AF00070930201609301011092710110927001B4
:102B0000ECE4F1E011921192119211922E163F060F
:102B1000C9F78091750190917601A0917701B091EC
:102B2000780122E0880F991FAA1FBB1F2A95D1F7B1
:102B30008093750190937601A0937701B09378010B
:102B40009981992371F00E94300668537F4F8F4F0F
:102B50009F4F60937A0170937B0180937C019093E7
:102B60007D010E948E0B882309F4B1C09CE4A92E3C
:102B700091E0B92EA4E0A98310E000E059805394BD
:102B80004501B8E0BA83D12CC12CF4018081918138
:102B9000A281B38125EA30E0181619061A061B0631
:102BA00014F02FE830E04A81652D8AED93E00E9411
:102BB000840680917401082E000C990B08171907E0
:102BC00079F480917901082E000C990BC816D9066A
:102BD00039F42DE04CE06A81615089810E943A0A03
:102BE00066E574E08AED93E00E947006F2E3F093EC
:102BF000E3031092E40366E271E08AED93E00E9441
:102C0000BC0A22E32093E30336E03093E4034091CF
:102C1000720150917301052E000C660B770B8AED43
:102C200093E00E945C0B82E38093E3038CE080934B
:102C3000E4036DE271E08AED93E00E94BC0A92E346
:102C40009093E303A2E1A093E40340910A01509121
:102C50000B0170E060E02AE08AED93E00E94100B27
:102C6000B2E3B093E303E8E1E093E40364E371E0EB
:102C70008AED93E00E94BC0AF2E3F093E3032EE1B5
:102C80002093E40340910901042E000C550B660BC0
:102C9000770B8AED93E00E945C0B3FEFC31AD30AD7
:102CA0008CE0880E911C9A81945F9A83A3E0CA16E7
:102CB000D10409F06ACF0F5F1F4FB981B15FB983AB
:102CC000E4E0AE0EB11C0330110509F057CFF091CE
:102CD0000901F9831F160CF002C10E943006ECE4D2
:102CE000F1E0019111912191319106171707280701
:102CF00039078CF4101611061206130664F42981A4
:102D0000222311F021502983DF0114971D921D9277
:102D10001D921C9213972E163F0619F73981309396
:102D200009010E943006009148011091490120914B
:102D30004A0130914B01061717072807390708F099
:102D400055C08090750190907601A0907701B09069
:102D500078010E943006AB01BC0120910301309143
:102D600004018091050190910601281739070CF4A0
:102D7000C901092E000CAA0BBB0B840F951FA61FBF
:102D8000B71F8093480190934901A0934A01B093E3
:102D90004B01C501B40129E030E040E050E00E9461
:102DA0009B18660F771F660F771F8B01045B1E4F02
:102DB000F80180819181A281B381892B8A2B8B2B91
:102DC000A9F40E943006AB01BC01809101019091F1
:102DD0000201092E000CAA0BBB0B840F951FA61F26
:102DE000B71FF80180839183A283B383809175011B
:102DF00090917601A0917701B09178010196A11D83
:102E0000B11D8093750190937601A0937701B093E3
:102E10007801A0E0B0E0AB2B09F4E7CC0E94000001
:102E2000DECC9CE39093E503109290038093910392
:102E300080E293E0909393038093920384ED93E078
:102E4000909395038093940387E08093B7038093D6
:102E5000B6038CEA9DE09093A9038093A8038EEDBE
:102E60009DE09093AB038093AA0384E79EE0909348
:102E7000AD038093AC038CE39FE0EFCA1092B603DE
:102E80008ECC60927901CECC1982E2CC109279017D
:102E9000EACC1092740106CD609274011CCD2CE234
:102EA00031E0309306012093050197CDF0920401A3
:102EB000E0920301A1CDF0920201E0920101BACDAE
:102EC0002091090112161CF4215020930901845B02
:102ED0009E4FFC011082118212821382ABCD409270
:102EE000FA034092FB03FFE0F9832BE149816DE097
:102EF0008AED93E00E94590829812F5F29832432AB
:102F0000A1F77092FA037092FB0325E14BE16FE0A9
:102F10008DE00E943A0A3FE03093E30381E1809321
:102F2000E40368EC70E08AED93E00E9470066BE3C6
:102F300071E08AED93E00E94BC0A8FE08093E30386
:102F40008BE18093E40360E471E08AED93E00E94FA
:102F5000BC0A4CCF1092DD031092DC0384E191E0B7
:102F60009093DB038093DA03809103019091040135
:102F7000092E000CAA0BBB0B8093480190934901CA
:102F8000A0934A01B0934B0108958F929F92AF9204
:102F9000BF92CF92DF92EF92FF92CF93DF93EC013B
:102FA000688179818A819B8161157105810591050F
:102FB00021F464E279ED8BE597E02DE133EF41E018
:102FC00050E00E94691849015A019B01AC01A7EA2F
:102FD000B1E40E9488186B017C01ACEEB4EFA5014E
:102FE00094010E949618C60ED71EE81EF91EF7FE21
:102FF00006C081E0C81AD108E10880E8F80AC88252
:10300000D982EA82FB82C701B6019F77DF91CF9117
:10301000FF90EF90DF90CF90BF90AF909F908F90F8
:1030200008958F929F92AF92BF92CF92DF92EF92CC
:10303000FF9260910C0170910D0180910E019091B1
:103040000F01611571058105910521F464E279EDA7
:103050008BE597E02DE133EF41E050E00E946918E5
:1030600049015A019B01AC01A7EAB1E40E9488180A
:103070006B017C01ACEEB4EFA50194010E9496189F
:10308000C60ED71EE81EF91EF7FE06C081E0C81A5C
:10309000D108E10880E8F80AC0920C01D0920D0135
:1030A000E0920E01F0920F01C701B6019F77FF90E9
:1030B000EF90DF90CF90BF90AF909F908F9008954A
:1030C00060930C0170930D0180930E0190930F019A
:1030D0000895052E97FB1EF400940E94801857FD5A
:1030E00007D00E949B1807FC03D04EF40C94801864
:1030F00050954095309521953F4F4F4F5F4F089524
:1031000090958095709561957F4F8F4F9F4F089553
:103110000E94BD18A59F900DB49F900DA49F800D97
:10312000911D11240895B7FF0C9488180E948818E7
:10313000821B930B0895A1E21A2EAA1BBB1BFD0153
:103140000DC0AA1FBB1FEE1FFF1FA217B307E40786
:10315000F50720F0A21BB30BE40BF50B661F771FDE
:10316000881F991F1A9469F76095709580959095BE
:103170009B01AC01BD01CF010895A29FB001B39F97
:10318000C001A39F700D811D1124911DB29F700D70
:10319000811D1124911D08950E94D3186894B111C6
:1031A0000C94621908950E94471988F09F5798F06F
:1031B000B92F9927B751B0F0E1F0660F771F881F3C
:1031C000991F1AF0BA95C9F714C0B13091F00E9456
:1031D0006119B1E008950C946119672F782F882741
:1031E000B85F39F0B93FCCF3869577956795B3957D
:1031F000D9F73EF490958095709561957F4F8F4FEC
:103200009F4F0895E89409C097FB3EF490958095F0
:10321000709561957F4F8F4F9F4F9923A9F0F92F9C
:1032200096E9BB279395F695879577956795B7951A
:10323000F111F8CFFAF4BB0F11F460FF1BC06F5F00
:103240007F4F8F4F9F4F16C0882311F096E911C012
:10325000772321F09EE8872F762F05C0662371F033
:1032600096E8862F70E060E02AF09A95660F771F47
:10327000881FDAF7880F9695879597F9089557FD77
:103280009058440F551F59F05F3F71F04795880FD4
:1032900097FB991F61F09F3F79F08795089512166B
:1032A00013061406551FF2CF4695F1DF08C0161617
:1032B00017061806991FF1CF8695710561050894C8
:1032C0000895E894BB2766277727CB0197F90895DF
:1032D0000E947B190C94EC190E94DE1938F00E94B0
:1032E000E51920F0952311F00C94D5190C94DB19F5
:1032F00011240C9462190E943F1970F3959FC1F339
:10330000950F50E0551F629FF001729FBB27F00D93
:10331000B11D639FAA27F00DB11DAA1F649F6627E8
:10332000B00DA11D661F829F2227B00DA11D621F37
:10333000739FB00DA11D621F839FA00D611D221FF1
:10334000749F3327A00D611D231F849F600D211DD5
:10335000822F762F6A2F11249F5750409AF0F1F058
:1033600088234AF0EE0FFF1FBB1F661F771F881FC1
:1033700091505040A9F79E3F510580F00C94D5190B
:103380000C9462195F3FE4F3983ED4F386957795E9
:103390006795B795F795E7959F5FC1F7FE2B880F67
:1033A000911D9695879597F9089597F99F6780E8FD
:1033B00070E060E008959FEF80EC089500240A9487
:1033C0001616170618060906089500240A94121600
:1033D0001306140605060895092E0394000C11F433
:1033E000882352F0BB0F40F4BF2B11F460FF04C0E0
:1033F0006F5F7F4F8F4F9F4F0895DB018F939F9398
:103400000E948818BF91AF91A29F800D911DA39F2C
:10341000900DB29F900D11240895991B79E004C07E
:10342000991F961708F0961B881F7A95C9F7809503
:10343000089597FB072E16F4009407D077FD09D066
:103440000E942D1A07FC05D03EF4909581959F4F60
:103450000895709561957F4F0895AA1BBB1B51E19C
:1034600007C0AA1FBB1FA617B70710F0A61BB70BF4
:10347000881F991F5A95A9F780959095BC01CD0199
:103480000895EE0FFF1F0590F491E02D0994F89434
:10349000FFCF0188138813C40905000B0100010048
:1034A00000000000000075084306670A660A0D0A5E
:1034B000004C4F414445520053636F72653A004CD3
:1034C0006576656C3A004C696665733A0047616DD4
:0834D00065004F7665720000F3
:107E0000112484B714BE81FFF0D085E080938100F7
:107E100082E08093C00088E18093C10086E0809377
:107E2000C20080E18093C4008EE0C9D0259A86E02C
:107E300020E33CEF91E0309385002093840096BBD3
:107E4000B09BFECF1D9AA8958150A9F7CC24DD24C4
:107E500088248394B5E0AB2EA1E19A2EF3E0BF2EE7
:107E6000A2D0813461F49FD0082FAFD0023811F036
:107E7000013811F484E001C083E08DD089C08234E0
:107E800011F484E103C0853419F485E0A6D080C0E4
:107E9000853579F488D0E82EFF2485D0082F10E0AE
:107EA000102F00270E291F29000F111F8ED06801E7
:107EB0006FC0863521F484E090D080E0DECF843638
:107EC00009F040C070D06FD0082F6DD080E0C81688
:107ED00080E7D80618F4F601B7BEE895C0E0D1E017
:107EE00062D089930C17E1F7F0E0CF16F0E7DF06D8
:107EF00018F0F601B7BEE89568D007B600FCFDCFD4
:107F0000A601A0E0B1E02C9130E011968C91119780
:107F100090E0982F8827822B932B1296FA010C0160
:107F200087BEE89511244E5F5F4FF1E0A038BF0790
:107F300051F7F601A7BEE89507B600FCFDCF97BE46
:107F4000E89526C08437B1F42ED02DD0F82E2BD052
:107F50003CD0F601EF2C8F010F5F1F4F84911BD097
:107F6000EA94F801C1F70894C11CD11CFA94CF0C13
:107F7000D11C0EC0853739F428D08EE10CD085E9AC
:107F80000AD08FE07ACF813511F488E018D01DD067
:107F900080E101D065CF982F8091C00085FFFCCF94
:107FA0009093C60008958091C00087FFFCCF809118
:107FB000C00084FD01C0A8958091C6000895E0E648
:107FC000F0E098E1908380830895EDDF803219F02E
:107FD00088E0F5DFFFCF84E1DECF1F93182FE3DFCA
:107FE0001150E9F7F2DF1F91089580E0E8DFEE27F6
:047FF000FF270994CA
:027FFE00040479
:00000001FF
